:020000040800F2
:1000000000040020BD000008DF000008E100000837
:1000100000000000000000000000000000000000E0
:10002000000000000000000000000000E3000008E5
:100030000000000000000000E5000008E7000008E4
:10004000E9000008E9000008E9000008E9000008EC
:10005000E9000008E9000008E9000008E9000008DC
:10006000E9000008E9000008E9000008E9000008CC
:10007000E9000008E9000008E9000008E9000008BC
:10008000E9000008E900000800000000E90000089D
:10009000E9000008E9000008E9000008E90000089C
:1000A000E9000008E9000008E9000008E90000088C
:1000B000E900000800000000E9000008C0460B4805
:1000C0000B4901600B480C4901600C4801680C4A5F
:1000D0000A430A4801680B4A1142FBD0FEE7FEE7DB
:1000E000FEE7FEE7FEE7FEE7FEE700001C10024029
:1000F000000000100020024001000000001002403B
:080100000000010000000200F4
:04000005080000BD32
:00000001FF
