:020000040800F2
:1000000000040020BD000008F3000008F50000080F
:1000100000000000000000000000000000000000E0
:10002000000000000000000000000000F7000008D1
:100030000000000000000000F9000008FB000008BC
:10004000FD000008FD000008FD000008FD0000089C
:10005000FD000008FD000008FD000008FD0000088C
:10006000FD000008FD000008FD000008FD0000087C
:10007000FD000008FD000008FD000008FD0000086C
:10008000FD000008FD00000800000000FD00000861
:10009000FD000008FD000008FD000008FD0000084C
:1000A000FD000008FD000008FD000008FD0000083C
:1000B000FD00000800000000FD000008C0461048D8
:1000C000104901601048114901601148114901604F
:1000D000C046114811490160114804E00E48114919
:1000E00001600F4802E0401EFDD1F7E7401EFDD140
:1000F000EFE7FEE7FEE7FEE7FEE7FEE7FEE70000CC
:100100001C100240000000101410024014000800EF
:100110000008004800000400140800480002000025
:080120000500000000000000D2
:04000005080000BD32
:00000001FF
