:020000040800F2
:1000000000040020BD0000081501000817010008C9
:1000100000000000000000000000000000000000E0
:1000200000000000000000000000000019010008AE
:1000300000000000000000001B0100081D01000876
:100040001F0100081F0100081F0100081F01000810
:100050001F0100081F0100081F0100081F01000800
:100060001F0100081F0100081F0100081F010008F0
:100070001F0100081F0100081F0100081F010008E0
:100080001F0100081F010008000000001F010008F8
:100090001F0100081F0100081F0100081F010008C0
:1000A0001F0100081F0100081F0100081F010008B0
:1000B0001F010008000000001F010008C04618488A
:1000C0001849016018481949016019480168194A1E
:1000D0000A43026016480168174A1142FBD01748CC
:1000E0001749016015480168124A0A430260104826
:1000F0000168144A0A4302600168134A1142FBD0A6
:100100000E480168114A0A4302600168104A114210
:10011000FBD0FEE7FEE7FEE7FEE7FEE7FEE7FEE7D1
:100120001C100240000000100020024001000000EE
:100130000010024000000100000002000410024014
:10014000000010000000000100000002020000009A
:0401500008000000A3
:04000005080000BD32
:00000001FF
