:020000040800F2
:1000000000040020BD0000083D0100083F01000879
:1000100000000000000000000000000000000000E0
:100020000000000000000000000000004101000886
:100030000000000000000000430100084501000826
:100040004701000847010008470100084701000870
:100050004701000847010008470100084701000860
:100060004701000847010008470100084701000850
:100070004701000847010008470100084701000840
:100080004701000847010008000000004701000880
:100090004701000847010008470100084701000820
:1000A0004701000847010008470100084701000810
:1000B000470100080000000047010008C046224830
:1000C0002249016022482349016023480168234AEC
:1000D0000A43026020480168214A1142FBD02148AE
:1000E000214901601F4801681C4A0A4302601A48FE
:1000F00001681E4A0A43026001681D4A1142FBD092
:10010000184801681B4A0A43026001681A4A1142F2
:10011000FBD014480168194A0A4302601848016874
:100120000F4A0A430260174801680D4A0A430260F9
:1001300015480168154A0A430260FEE7FEE7FEE73C
:10014000FEE7FEE7FEE7FEE71C100240000000109D
:1001500000200240010000000010024000000100E9
:100160000000020004100240000010000000000126
:10017000000000020200000008000000000000046F
:10018000141002400000004808000048000003006E
:04000005080000BD32
:00000001FF
