:020000040800F2
:1000000000040020BD000008D7000008D900000847
:1000100000000000000000000000000000000000E0
:10002000000000000000000000000000DB000008ED
:100030000000000000000000DD000008DF000008F4
:10004000E1000008E1000008E1000008E10000080C
:10005000E1000008E1000008E1000008E1000008FC
:10006000E1000008E1000008E1000008E1000008EC
:10007000E1000008E1000008E1000008E1000008DC
:10008000E1000008E100000800000000E1000008B5
:10009000E1000008E1000008E1000008E1000008BC
:1000A000E1000008E1000008E1000008E1000008AC
:1000B000E100000800000000E1000008C046094817
:1000C0000949016009480A4901600A4801680A4A69
:1000D0000A430260FEE7FEE7FEE7FEE7FEE7FEE713
:1000E000FEE700001C10024000000010002002404B
:0C00F000010000000010024000000100B0
:04000005080000BD32
:00000001FF
